{
  "address": "0xc9CCFD034FB560c67495F465BF45Dde757FFA035",
  "abi": [
    {
      "inputs": [],
      "stateMutability": "nonpayable",
      "type": "constructor"
    },
    {
      "anonymous": false,
      "inputs": [
        {
          "indexed": true,
          "internalType": "uint256",
          "name": "cellId",
          "type": "uint256"
        },
        {
          "indexed": true,
          "internalType": "address",
          "name": "buyer",
          "type": "address"
        },
        {
          "indexed": true,
          "internalType": "address",
          "name": "previousOwner",
          "type": "address"
        },
        {
          "indexed": false,
          "internalType": "string",
          "name": "message",
          "type": "string"
        },
        {
          "indexed": false,
          "internalType": "uint256",
          "name": "price",
          "type": "uint256"
        },
        {
          "indexed": false,
          "internalType": "uint256",
          "name": "timestamp",
          "type": "uint256"
        }
      ],
      "name": "CellPurchased",
      "type": "event"
    },
    {
      "anonymous": false,
      "inputs": [
        {
          "indexed": true,
          "internalType": "uint256",
          "name": "cellId",
          "type": "uint256"
        },
        {
          "indexed": true,
          "internalType": "address",
          "name": "owner",
          "type": "address"
        },
        {
          "indexed": false,
          "internalType": "string",
          "name": "newMessage",
          "type": "string"
        },
        {
          "indexed": false,
          "internalType": "uint256",
          "name": "timestamp",
          "type": "uint256"
        }
      ],
      "name": "MessageUpdated",
      "type": "event"
    },
    {
      "anonymous": false,
      "inputs": [
        {
          "indexed": true,
          "internalType": "address",
          "name": "to",
          "type": "address"
        },
        {
          "indexed": false,
          "internalType": "uint256",
          "name": "amount",
          "type": "uint256"
        },
        {
          "indexed": false,
          "internalType": "uint256",
          "name": "timestamp",
          "type": "uint256"
        }
      ],
      "name": "Withdrawal",
      "type": "event"
    },
    {
      "inputs": [],
      "name": "GRID_HEIGHT",
      "outputs": [
        {
          "internalType": "uint256",
          "name": "",
          "type": "uint256"
        }
      ],
      "stateMutability": "view",
      "type": "function"
    },
    {
      "inputs": [],
      "name": "GRID_WIDTH",
      "outputs": [
        {
          "internalType": "uint256",
          "name": "",
          "type": "uint256"
        }
      ],
      "stateMutability": "view",
      "type": "function"
    },
    {
      "inputs": [],
      "name": "MIN_INITIAL_PRICE",
      "outputs": [
        {
          "internalType": "uint256",
          "name": "",
          "type": "uint256"
        }
      ],
      "stateMutability": "view",
      "type": "function"
    },
    {
      "inputs": [],
      "name": "MIN_PRICE_INCREMENT",
      "outputs": [
        {
          "internalType": "uint256",
          "name": "",
          "type": "uint256"
        }
      ],
      "stateMutability": "view",
      "type": "function"
    },
    {
      "inputs": [],
      "name": "PRICE_DENOMINATOR",
      "outputs": [
        {
          "internalType": "uint256",
          "name": "",
          "type": "uint256"
        }
      ],
      "stateMutability": "view",
      "type": "function"
    },
    {
      "inputs": [],
      "name": "TOTAL_CELLS",
      "outputs": [
        {
          "internalType": "uint256",
          "name": "",
          "type": "uint256"
        }
      ],
      "stateMutability": "view",
      "type": "function"
    },
    {
      "inputs": [
        {
          "internalType": "uint256",
          "name": "cellId",
          "type": "uint256"
        },
        {
          "internalType": "string",
          "name": "message",
          "type": "string"
        }
      ],
      "name": "buyCell",
      "outputs": [],
      "stateMutability": "payable",
      "type": "function"
    },
    {
      "inputs": [
        {
          "internalType": "uint256",
          "name": "cellId",
          "type": "uint256"
        }
      ],
      "name": "cellIdToCoordinates",
      "outputs": [
        {
          "internalType": "uint256",
          "name": "x",
          "type": "uint256"
        },
        {
          "internalType": "uint256",
          "name": "y",
          "type": "uint256"
        }
      ],
      "stateMutability": "pure",
      "type": "function"
    },
    {
      "inputs": [],
      "name": "contractOwner",
      "outputs": [
        {
          "internalType": "address",
          "name": "",
          "type": "address"
        }
      ],
      "stateMutability": "view",
      "type": "function"
    },
    {
      "inputs": [
        {
          "internalType": "uint256",
          "name": "x",
          "type": "uint256"
        },
        {
          "internalType": "uint256",
          "name": "y",
          "type": "uint256"
        }
      ],
      "name": "coordinatesToCellId",
      "outputs": [
        {
          "internalType": "uint256",
          "name": "",
          "type": "uint256"
        }
      ],
      "stateMutability": "pure",
      "type": "function"
    },
    {
      "inputs": [],
      "name": "getAllCells",
      "outputs": [
        {
          "components": [
            {
              "internalType": "string",
              "name": "message",
              "type": "string"
            },
            {
              "internalType": "address",
              "name": "owner",
              "type": "address"
            },
            {
              "internalType": "uint256",
              "name": "price",
              "type": "uint256"
            },
            {
              "internalType": "uint256",
              "name": "timestamp",
              "type": "uint256"
            }
          ],
          "internalType": "struct MessageVault.GridCell[]",
          "name": "",
          "type": "tuple[]"
        }
      ],
      "stateMutability": "view",
      "type": "function"
    },
    {
      "inputs": [
        {
          "internalType": "uint256",
          "name": "cellId",
          "type": "uint256"
        }
      ],
      "name": "getCell",
      "outputs": [
        {
          "components": [
            {
              "internalType": "string",
              "name": "message",
              "type": "string"
            },
            {
              "internalType": "address",
              "name": "owner",
              "type": "address"
            },
            {
              "internalType": "uint256",
              "name": "price",
              "type": "uint256"
            },
            {
              "internalType": "uint256",
              "name": "timestamp",
              "type": "uint256"
            }
          ],
          "internalType": "struct MessageVault.GridCell",
          "name": "",
          "type": "tuple"
        }
      ],
      "stateMutability": "view",
      "type": "function"
    },
    {
      "inputs": [
        {
          "internalType": "uint256",
          "name": "cellId",
          "type": "uint256"
        }
      ],
      "name": "getMinimumPrice",
      "outputs": [
        {
          "internalType": "uint256",
          "name": "",
          "type": "uint256"
        }
      ],
      "stateMutability": "view",
      "type": "function"
    },
    {
      "inputs": [],
      "name": "getVaultBalance",
      "outputs": [
        {
          "internalType": "uint256",
          "name": "",
          "type": "uint256"
        }
      ],
      "stateMutability": "view",
      "type": "function"
    },
    {
      "inputs": [
        {
          "internalType": "uint256",
          "name": "",
          "type": "uint256"
        }
      ],
      "name": "grid",
      "outputs": [
        {
          "internalType": "string",
          "name": "message",
          "type": "string"
        },
        {
          "internalType": "address",
          "name": "owner",
          "type": "address"
        },
        {
          "internalType": "uint256",
          "name": "price",
          "type": "uint256"
        },
        {
          "internalType": "uint256",
          "name": "timestamp",
          "type": "uint256"
        }
      ],
      "stateMutability": "view",
      "type": "function"
    },
    {
      "inputs": [],
      "name": "totalVaultValue",
      "outputs": [
        {
          "internalType": "uint256",
          "name": "",
          "type": "uint256"
        }
      ],
      "stateMutability": "view",
      "type": "function"
    },
    {
      "inputs": [
        {
          "internalType": "address",
          "name": "newOwner",
          "type": "address"
        }
      ],
      "name": "transferOwnership",
      "outputs": [],
      "stateMutability": "nonpayable",
      "type": "function"
    },
    {
      "inputs": [
        {
          "internalType": "uint256",
          "name": "cellId",
          "type": "uint256"
        },
        {
          "internalType": "string",
          "name": "newMessage",
          "type": "string"
        }
      ],
      "name": "updateMessage",
      "outputs": [],
      "stateMutability": "nonpayable",
      "type": "function"
    },
    {
      "inputs": [
        {
          "internalType": "uint256",
          "name": "amount",
          "type": "uint256"
        },
        {
          "internalType": "address payable",
          "name": "to",
          "type": "address"
        }
      ],
      "name": "withdraw",
      "outputs": [],
      "stateMutability": "nonpayable",
      "type": "function"
    },
    {
      "inputs": [
        {
          "internalType": "address payable",
          "name": "to",
          "type": "address"
        }
      ],
      "name": "withdrawAll",
      "outputs": [],
      "stateMutability": "nonpayable",
      "type": "function"
    }
  ],
  "transactionHash": "0xce6ebdc1600aa097f9408e6b53e627be3af896f892738869b042851e88abf437",
  "args": [],
  "numDeployments": 2,
  "solcInputHash": "69ad96f386c930c9d722a3c588282d54",
  "bytecode": "0x608060405234801561001057600080fd5b50600080546001600160a01b031916331790556115ba806100326000396000f3fe60806040526004361061011e5760003560e01c80636c1516e1116100a0578063d5d0f6fa11610064578063d5d0f6fa1461030b578063ed12e8ef1461032b578063f2fde38b1461033e578063f344fe001461035e578063fa09e6301461037357600080fd5b80636c1516e1146102535780637f949386146102685780638bd2f3bc14610288578063afbc74b9146102bd578063ce606ee0146102d357600080fd5b80634ae73cec116100e75780634ae73cec146101e05780634bf11ad21461019d57806351d2cc8f146101f55780636108048d14610225578063626e76221461023857600080fd5b8062f714ce14610123578063112007bd14610145578063206848f614610170578063235e78eb1461019d578063463e0318146101c0575b600080fd5b34801561012f57600080fd5b5061014361013e36600461100b565b610393565b005b34801561015157600080fd5b5061015a610591565b60405161016791906110c8565b60405180910390f35b34801561017c57600080fd5b5061019061018b36600461112a565b61073f565b6040516101679190611143565b3480156101a957600080fd5b506101b2600a81565b604051908152602001610167565b3480156101cc57600080fd5b506101b26101db36600461112a565b610874565b3480156101ec57600080fd5b506101b26108ec565b34801561020157600080fd5b5061021561021036600461112a565b6108fa565b6040516101679493929190611156565b6101436102333660046111a4565b6109b6565b34801561024457600080fd5b506101b266038d7ea4c6800081565b34801561025f57600080fd5b506101b2606481565b34801561027457600080fd5b506101436102833660046111a4565b610bb1565b34801561029457600080fd5b506102a86102a336600461112a565b610cbd565b60408051928352602083019190915201610167565b3480156102c957600080fd5b506101b260025481565b3480156102df57600080fd5b506000546102f3906001600160a01b031681565b6040516001600160a01b039091168152602001610167565b34801561031757600080fd5b506101b261032636600461125f565b610d08565b34801561033757600080fd5b50476101b2565b34801561034a57600080fd5b50610143610359366004611281565b610db7565b34801561036a57600080fd5b506101b2606e81565b34801561037f57600080fd5b5061014361038e366004611281565b610e59565b6000546001600160a01b031633146103c65760405162461bcd60e51b81526004016103bd9061129e565b60405180910390fd5b6001600160a01b03811661041c5760405162461bcd60e51b815260206004820152601f60248201527f43616e6e6f7420776974686472617720746f207a65726f20616464726573730060448201526064016103bd565b6000821161046c5760405162461bcd60e51b815260206004820152601d60248201527f416d6f756e74206d7573742062652067726561746572207468616e203000000060448201526064016103bd565b814710156104b35760405162461bcd60e51b8152602060048201526014602482015273496e73756666696369656e742062616c616e636560601b60448201526064016103bd565b6000816001600160a01b03168360405160006040518083038185875af1925050503d8060008114610500576040519150601f19603f3d011682016040523d82523d6000602084013e610505565b606091505b50509050806105485760405162461bcd60e51b815260206004820152600f60248201526e151c985b9cd9995c8819985a5b1959608a1b60448201526064016103bd565b604080518481524260208201526001600160a01b038416917fdf273cb619d95419a9cd0ec88123a0538c85064229baa6363788f743fff90deb91015b60405180910390a2505050565b606060006105a0600a806112f5565b67ffffffffffffffff8111156105b8576105b861118e565b60405190808252806020026020018201604052801561061d57816020015b61060a60405180608001604052806060815260200160006001600160a01b0316815260200160008152602001600081525090565b8152602001906001900390816105d65790505b50905060005b61062e600a806112f5565b811015610739576000818152600160205260409081902081516080810190925280548290829061065d9061130c565b80601f01602080910402602001604051908101604052809291908181526020018280546106899061130c565b80156106d65780601f106106ab576101008083540402835291602001916106d6565b820191906000526020600020905b8154815290600101906020018083116106b957829003601f168201915b505050918352505060018201546001600160a01b0316602082015260028201546040820152600390910154606090910152825183908390811061071b5761071b611340565b6020026020010181905250808061073190611356565b915050610623565b50919050565b61077360405180608001604052806060815260200160006001600160a01b0316815260200160008152602001600081525090565b61077e600a806112f5565b821061079c5760405162461bcd60e51b81526004016103bd9061136f565b600082815260016020526040908190208151608081019092528054829082906107c49061130c565b80601f01602080910402602001604051908101604052809291908181526020018280546107f09061130c565b801561083d5780601f106108125761010080835404028352916020019161083d565b820191906000526020600020905b81548152906001019060200180831161082057829003601f168201915b505050918352505060018201546001600160a01b031660208201526002820154604082015260039091015460609091015292915050565b6000610881600a806112f5565b821061089f5760405162461bcd60e51b81526004016103bd9061136f565b600082815260016020526040812060028101549091036108c8575066038d7ea4c6800092915050565b6064606e82600201546108db91906112f5565b6108e591906113ae565b9392505050565b6108f7600a806112f5565b81565b6001602052600090815260409020805481906109159061130c565b80601f01602080910402602001604051908101604052809291908181526020018280546109419061130c565b801561098e5780601f106109635761010080835404028352916020019161098e565b820191906000526020600020905b81548152906001019060200180831161097157829003601f168201915b505050506001830154600284015460039094015492936001600160a01b039091169290915084565b6109c1600a806112f5565b82106109df5760405162461bcd60e51b81526004016103bd9061136f565b8051600114610a005760405162461bcd60e51b81526004016103bd906113c2565b600082815260016020526040812060028101549091819003610a835766038d7ea4c68000341015610a7e5760405162461bcd60e51b815260206004820152602260248201527f507269636520746f6f206c6f7720666f7220696e697469616c20707572636861604482015261736560f01b60648201526084016103bd565b610b06565b60006064610a92606e846112f5565b610a9c91906113ae565b905080341015610b045760405162461bcd60e51b815260206004820152602d60248201527f4d75737420706179206174206c6561737420313025206d6f7265207468616e2060448201526c63757272656e7420707269636560981b60648201526084016103bd565b505b60018201546001600160a01b031682610b1f8582611456565b506001830180546001600160a01b031916331790553460028085018290554260038601558054600090610b53908490611516565b92505081905550806001600160a01b0316336001600160a01b0316867f37e08609c27ed50403d39d40036f8fe763e37d4204bcc7dd8cc4364e9b3e229e873442604051610ba293929190611529565b60405180910390a45050505050565b610bbc600a806112f5565b8210610bda5760405162461bcd60e51b81526004016103bd9061136f565b8051600114610bfb5760405162461bcd60e51b81526004016103bd906113c2565b6000828152600160208190526040909120908101546001600160a01b03163314610c675760405162461bcd60e51b815260206004820152601760248201527f596f7520646f6e2774206f776e20746869732063656c6c00000000000000000060448201526064016103bd565b80610c728382611456565b504260038201819055604051339185917f9e4dcf802aeb5356c64a1b315ec83129272cda000bb9c888420e23ba5327521f91610cb09187919061154e565b60405180910390a3505050565b600080610ccb600a806112f5565b8310610ce95760405162461bcd60e51b81526004016103bd9061136f565b610cf4600a84611570565b9150610d01600a846113ae565b9050915091565b6000600a8310610d515760405162461bcd60e51b8152602060048201526014602482015273496e76616c6964207820636f6f7264696e61746560601b60448201526064016103bd565b600a8210610d985760405162461bcd60e51b8152602060048201526014602482015273496e76616c6964207920636f6f7264696e61746560601b60448201526064016103bd565b82610da4600a846112f5565b610dae9190611516565b90505b92915050565b6000546001600160a01b03163314610de15760405162461bcd60e51b81526004016103bd9061129e565b6001600160a01b038116610e375760405162461bcd60e51b815260206004820181905260248201527f4e6577206f776e65722063616e6e6f74206265207a65726f206164647265737360448201526064016103bd565b600080546001600160a01b0319166001600160a01b0392909216919091179055565b6000546001600160a01b03163314610e835760405162461bcd60e51b81526004016103bd9061129e565b6001600160a01b038116610ed95760405162461bcd60e51b815260206004820152601f60248201527f43616e6e6f7420776974686472617720746f207a65726f20616464726573730060448201526064016103bd565b4780610f1e5760405162461bcd60e51b81526020600482015260146024820152734e6f2066756e647320746f20776974686472617760601b60448201526064016103bd565b6000826001600160a01b03168260405160006040518083038185875af1925050503d8060008114610f6b576040519150601f19603f3d011682016040523d82523d6000602084013e610f70565b606091505b5050905080610fb35760405162461bcd60e51b815260206004820152600f60248201526e151c985b9cd9995c8819985a5b1959608a1b60448201526064016103bd565b604080518381524260208201526001600160a01b038516917fdf273cb619d95419a9cd0ec88123a0538c85064229baa6363788f743fff90deb9101610584565b6001600160a01b038116811461100857600080fd5b50565b6000806040838503121561101e57600080fd5b82359150602083013561103081610ff3565b809150509250929050565b6000815180845260005b8181101561106157602081850181015186830182015201611045565b506000602082860101526020601f19601f83011685010191505092915050565b6000815160808452611096608085018261103b565b6020848101516001600160a01b0316908601526040808501519086015260609384015193909401929092525090919050565b6000602080830181845280855180835260408601915060408160051b870101925083870160005b8281101561111d57603f1988860301845261110b858351611081565b945092850192908501906001016110ef565b5092979650505050505050565b60006020828403121561113c57600080fd5b5035919050565b602081526000610dae6020830184611081565b608081526000611169608083018761103b565b6001600160a01b03959095166020830152506040810192909252606090910152919050565b634e487b7160e01b600052604160045260246000fd5b600080604083850312156111b757600080fd5b82359150602083013567ffffffffffffffff808211156111d657600080fd5b818501915085601f8301126111ea57600080fd5b8135818111156111fc576111fc61118e565b604051601f8201601f19908116603f011681019083821181831017156112245761122461118e565b8160405282815288602084870101111561123d57600080fd5b8260208601602083013760006020848301015280955050505050509250929050565b6000806040838503121561127257600080fd5b50508035926020909101359150565b60006020828403121561129357600080fd5b81356108e581610ff3565b60208082526021908201527f4f6e6c79206f776e65722063616e2063616c6c20746869732066756e6374696f6040820152603760f91b606082015260800190565b634e487b7160e01b600052601160045260246000fd5b8082028115828204841417610db157610db16112df565b600181811c9082168061132057607f821691505b60208210810361073957634e487b7160e01b600052602260045260246000fd5b634e487b7160e01b600052603260045260246000fd5b600060018201611368576113686112df565b5060010190565b6020808252600f908201526e125b9d985b1a590818d95b1b081251608a1b604082015260600190565b634e487b7160e01b600052601260045260246000fd5b6000826113bd576113bd611398565b500490565b60208082526025908201527f45786163746c79203120636861726163746572207265717569726564207065726040820152640818d95b1b60da1b606082015260800190565b601f82111561145157600081815260208120601f850160051c8101602086101561142e5750805b601f850160051c820191505b8181101561144d5782815560010161143a565b5050505b505050565b815167ffffffffffffffff8111156114705761147061118e565b6114848161147e845461130c565b84611407565b602080601f8311600181146114b957600084156114a15750858301515b600019600386901b1c1916600185901b17855561144d565b600085815260208120601f198616915b828110156114e8578886015182559484019460019091019084016114c9565b50858210156115065787850151600019600388901b60f8161c191681555b5050505050600190811b01905550565b80820180821115610db157610db16112df565b60608152600061153c606083018661103b565b60208301949094525060400152919050565b604081526000611561604083018561103b565b90508260208301529392505050565b60008261157f5761157f611398565b50069056fea26469706673582212205a8970c043aabcfedaf7f34589187cb08b16ac715170563c5b3d6ac9017bd7e364736f6c63430008140033",
  "devdoc": {
    "details": "A contract where users can buy grid cells with messages Each cell can be overwritten by paying more than the previous price All funds are stored in the contract vault",
    "kind": "dev",
    "methods": {
      "buyCell(uint256,string)": {
        "details": "Buy or overwrite a grid cell with a single character",
        "params": {
          "cellId": "The ID of the cell (0 to TOTAL_CELLS-1)",
          "message": "The single character to display in the cell (uppercase)"
        }
      },
      "cellIdToCoordinates(uint256)": {
        "details": "Convert cell ID to x,y coordinates",
        "params": {
          "cellId": "The cell ID"
        },
        "returns": {
          "x": "and y coordinates"
        }
      },
      "constructor": {
        "details": "Constructor sets the contract deployer as owner"
      },
      "coordinatesToCellId(uint256,uint256)": {
        "details": "Convert x,y coordinates to cell ID",
        "params": {
          "x": "The x coordinate (0 to GRID_WIDTH-1)",
          "y": "The y coordinate (0 to GRID_HEIGHT-1)"
        },
        "returns": {
          "_0": "The cell ID"
        }
      },
      "getAllCells()": {
        "details": "Get all cell data for the entire grid",
        "returns": {
          "_0": "An array of all grid cells"
        }
      },
      "getCell(uint256)": {
        "details": "Get cell data",
        "params": {
          "cellId": "The ID of the cell"
        },
        "returns": {
          "_0": "The cell data"
        }
      },
      "getMinimumPrice(uint256)": {
        "details": "Calculate minimum price to buy a cell",
        "params": {
          "cellId": "The ID of the cell"
        },
        "returns": {
          "_0": "The minimum price required"
        }
      },
      "getVaultBalance()": {
        "details": "Get total vault balance",
        "returns": {
          "_0": "The total CELO stored in the vault"
        }
      },
      "transferOwnership(address)": {
        "details": "Transfer ownership to a new address",
        "params": {
          "newOwner": "The address of the new owner"
        }
      },
      "updateMessage(uint256,string)": {
        "details": "Update character of a cell you own (free)",
        "params": {
          "cellId": "The ID of the cell",
          "newMessage": "The new single character"
        }
      },
      "withdraw(uint256,address)": {
        "details": "Withdraw funds from the vault (owner only)",
        "params": {
          "amount": "The amount to withdraw (in wei)",
          "to": "The address to send funds to"
        }
      },
      "withdrawAll(address)": {
        "details": "Withdraw all funds from the vault (owner only)",
        "params": {
          "to": "The address to send funds to"
        }
      }
    },
    "title": "MessageVault",
    "version": 1
  },
  "userdoc": {
    "kind": "user",
    "methods": {},
    "version": 1
  },
  "storageLayout": {
    "storage": [
      {
        "astId": 4,
        "contract": "contracts/MessageVault.sol:MessageVault",
        "label": "contractOwner",
        "offset": 0,
        "slot": "0",
        "type": "t_address"
      },
      {
        "astId": 38,
        "contract": "contracts/MessageVault.sol:MessageVault",
        "label": "grid",
        "offset": 0,
        "slot": "1",
        "type": "t_mapping(t_uint256,t_struct(GridCell)13_storage)"
      },
      {
        "astId": 40,
        "contract": "contracts/MessageVault.sol:MessageVault",
        "label": "totalVaultValue",
        "offset": 0,
        "slot": "2",
        "type": "t_uint256"
      }
    ],
    "types": {
      "t_address": {
        "encoding": "inplace",
        "label": "address",
        "numberOfBytes": "20"
      },
      "t_mapping(t_uint256,t_struct(GridCell)13_storage)": {
        "encoding": "mapping",
        "key": "t_uint256",
        "label": "mapping(uint256 => struct MessageVault.GridCell)",
        "numberOfBytes": "32",
        "value": "t_struct(GridCell)13_storage"
      },
      "t_string_storage": {
        "encoding": "bytes",
        "label": "string",
        "numberOfBytes": "32"
      },
      "t_struct(GridCell)13_storage": {
        "encoding": "inplace",
        "label": "struct MessageVault.GridCell",
        "members": [
          {
            "astId": 6,
            "contract": "contracts/MessageVault.sol:MessageVault",
            "label": "message",
            "offset": 0,
            "slot": "0",
            "type": "t_string_storage"
          },
          {
            "astId": 8,
            "contract": "contracts/MessageVault.sol:MessageVault",
            "label": "owner",
            "offset": 0,
            "slot": "1",
            "type": "t_address"
          },
          {
            "astId": 10,
            "contract": "contracts/MessageVault.sol:MessageVault",
            "label": "price",
            "offset": 0,
            "slot": "2",
            "type": "t_uint256"
          },
          {
            "astId": 12,
            "contract": "contracts/MessageVault.sol:MessageVault",
            "label": "timestamp",
            "offset": 0,
            "slot": "3",
            "type": "t_uint256"
          }
        ],
        "numberOfBytes": "128"
      },
      "t_uint256": {
        "encoding": "inplace",
        "label": "uint256",
        "numberOfBytes": "32"
      }
    }
  }
}